:0E0000000C9461000C9499000C9400000C9478
:10000E0000000C9400000C9400000C9400000C9462
:10001E00AA000C9400000C9400000C9400000C94A8
:10002E0000000C94E9000C94EB000C9400000C946E
:10003E0000000C9410020C9400000C9400000C9420
:10004E0000000C9400000C9400000C9400000C9422
:10005E0000000C9400000C9400001027E8036400CC
:10006E000A000100001000011000010000009FC0F6
:10007E002B002B002500250025002500250025003E
:10008E0020400102040810200100EE00000055552A
:10009E0055555597010003007A00020010027C00AE
:1000AE000F0012027E00080022028E000100610283
:1000BE0096000000F894EE27EFBBF1E0F5BFE5BF28
:1000CE00F8E1A895A4B7A77FA4BFF0936000E093D2
:1000DE0060008DE0A2E0BB27ED938A95E9F780E002
:1000EE0094E0A0E0B1E0ED930197E9F7E2EAF0E0E9
:1000FE0085919591009761F0A591B5910590159018
:10010E00BF01F00105900D920197E1F7FB01F0CFD1
:10011E00E0E0EEBBEFEFEDBFE4E0EEBFC0E0D2E01B
:10012E000C942304EA93EFB7EA93E0E0EDBBE2E030
:10013E00E5BDE3EDE6BD9924F199F59AF198E991C3
:10014E00EFBFE99118950A921A92AA93BA93EA937D
:10015E00FA93EFB7EA931A937394E8E27E1610F0CF
:10016E007724F09AE8ECE915F8F4F1991CC0F19AAD
:10017E0010E01830C0F4E12FA0E0B2E0F0E0EE0F96
:10018E00FF1FEA0FFB1F0F01E12FA3E0B0E0F0E02D
:10019E00EE0FFF1FAE0FBF1F0E943405D001ED936F
:1001AE00FC931F5FE6CF04C0EFEF9E1608F4939406
:1001BE001991E991EFBFF991E991B991A99119902E
:1001CE0009901895409818950A921A92AA93BA9384
:1001DE00EA93FA93EFB7EA931A930A93E8E0E315DA
:1001EE0030F4E0E0E0935C02E0935D023324E8E05B
:1001FE00E315F8F0EBB1A0911002EA23EBB9E5B1EB
:10020E00AE2FE0911102EA23E5B9E32DA2E1B2E0AF
:10021E00F0E0EE0FFF1FAE0FBF1F0E9430050F0163
:10022E00A081E32DF0E0EE5DFD4FE081EA2BD001E1
:10023E00EC93E8E0E31551F4A0915C02B0915D02FD
:10024E00E0E4FCE9EA1BFB0B8F010AC0E32DA0E002
:10025E00B2E0F0E0EE0FFF1FAE0FBF1F0D911C912D
:10026E00F801A0915C02B0915D02EA0FFB1FE093D2
:10027E005C02F0935D02E0E0E0938000E093810089
:10028E00E0E4FCE9E01BF10BEF2FF0E0E0938500DA
:10029E00E0E4E01BE0938400E0E4FCE9E01BF10BFA
:1002AE00EC50FE4FEF2FF0E0E0938B00E0E4E01B0C
:1002BE00EC50E0938A00409A3394E2E0E0938000A1
:1002CE00EAE1E093810009911991E991EFBFF9916B
:1002DE00E991B991A9911990099018950E9471050B
:1002EE0009E529E030E03323A2F110E0015040E0AF
:1002FE0050E04830E0E05E071CF5110FE02FF0E013
:10030E000E941305E65DFD4F1080E02FF0E0E770D0
:10031E00F0700E941A05A1E0B0E080E090E00E942B
:10032E000705A12DBB27882799270E94FA040E9452
:10033E0029050E9424051E2B01504F5F5F4FD9CF18
:10034E00D901AD5EBF4FE12F0E944C0521503040C8
:10035E00CACF5F9A4198FDCF5298E1E0EDBB089568
:10036E000E947105E0EAE0935E0248E050E05523FA
:10037E000AF44CC000E010E0E0915E02E150E09320
:10038E005E0220E030E02031E0E03E0774F5000F21
:10039E00111FE0915E02F0E0DF010E941305E65DA1
:1003AE00FD4FE081F0E0FF93EF93FD01E770F070F9
:1003BE000E941A05A1E0B0E080E090E00E940705DF
:1003CE00AF91BF910E941F050E94FA040E94290559
:1003DE000E942405F0E00E2B1F2BE0915E02E150EF
:1003EE00E0935E022F5F3F4FCECFE0915E02E15071
:1003FE00E0935E02FA01ACE4B2E0EE0FFF1FEA0FEB
:10040E00FB1F0083118341505040B1CF552444242B
:10041E0057C10A921A92FA926A937A938A939A938E
:10042E00AA93BA93EA93FA93EFB7EA93E3EDE6BD94
:10043E00F49B3BC0E2E0E5BD4A9B0FC0E22DF0E02D
:10044E000E941305E65DFD4FBF011080E22DE7709F
:10045E00A1E00E94FF04E1290FC0E22DF0E00E940E
:10046E001305E65DFD4FBF011080E22DE770A1E0A0
:10047E000E94FF04E095E121DB01EC932394E091CF
:10048E005F02EF5FE0935F02EAE5E21519F4E0E048
:10049E00E5BD24DFA0915F02A93031F4E0E0E5BDB7
:1004AE00E0935F02E1E0EDBB45C05F9A4198F298A0
:1004BE00E2E0E5BD4A9B0FC0E42DF0E00E9413057B
:1004CE00E65DFD4FBF011080E42DE770A1E00E94B4
:1004DE00FF04E1290FC0E42DF0E00E941305E65D54
:1004EE00FD4FBF011080E42DE770A1E00E94FF04D4
:1004FE00E095E121DB01EC934394E0916002EF5F24
:10050E00E0936002A0916002A231A1F4E0E0E5BDAB
:10051E00E09360025394E8E0E51550F4E0E0E5BDA9
:10052E001FDFF29AF398F59B03C0E0E0E0936F00B3
:10053E00E1E0EDBBE991EFBFF991E991B991A99194
:10054E009991899179916991F990199009901895DD
:10055E000E94710510E0A4EFB1E00E94F00420E0CB
:10056E0030E02A30E0E03E07A4F588E592E00197FE
:10057E00F1F740E050E04A30E0E05E073CF5E12F55
:10058E00F0E00E941305E65DFD4F1080E12FF0E0D4
:10059E00E770F0700E941A05A1E0B0E080E090E0F4
:1005AE000E940705A12DBB27882799270E94FA04D0
:1005BE000E942905E03011F05A9801C05A9A1F5F27
:1005CE008BE58A95F1F74F5F5F4FD5CF2F5F3F4F8A
:1005DE00C8CF76C00E947105222400E010E00A30D8
:1005EE00E0E01E077CF4F801E15CFD4F0F01A3E192
:1005FE00B0E0A00FB11F0E943805D001EC930F5F41
:10060E001F4FEDCF00E010E00A30E0E01E070CF0C7
:10061E0057C0E22DF0E00E941305E65DFD4FBF01CD
:10062E001080E22DE770A1E00E94FF04E095E12129
:10063E00DB01EC932394AFE3B2E0A00FB11F5C910A
:10064E0028E030E0022E032A39F150FF0FC0E22DD0
:10065E00F0E00E941305E65DFD4FBF011080E22D14
:10066E00E770A1E00E94FF04E1290FC0E22DF0E047
:10067E000E941305E65DFD4FBF011080E22DE7706D
:10068E00A1E00E94FF04E095E121DB01EC932394AD
:10069E00569521503040D6CFE22DF0E00E94130542
:1006AE00E65DFD4FBF011080E22DE770A1E00E94D4
:1006BE00FF04E129DB01EC9323940F5F1F4FA4CFBE
:1006CE000E94780526960895529AAAE0B0E00E94FC
:1006DE00F00480DF3DDFA1E0B0E00E94F00452980C
:1006EE000895489931C0F49AE0E0E0938100E093D8
:1006FE00B100E0936F00E0937000529A5A985B98A5
:10070E00A4EFB1E00E94F0045B9A5A98A8ECB0E016
:10071E000E94F0045A9A52984A9AA4EFB1E00E94AD
:10072E00F004E0E0E4BDE5BDE1E0EDBB78945F9A56
:10073E004198A4EFB1E00E94F0045F98419AA4EFB3
:10074E00B1E00E94F004F3CF08951A930A93E0E00B
:10075E004899E1E01E2FA09161021A1721F4E0E002
:10076E00E093620238C0A0916202AF5FA093620272
:10077E00A53088F110936102103069F5F19903C02C
:10078E00E8E29E1608F027C0E2E0F0E00F01A2E0DA
:10079E00B0E00E9438050E942405D0010E944C054D
:1007AE0000E00830C0F4E02FA3E0B0E0F0E0EE0F80
:1007BE00FF1FEA0FFB1F0F01E02FA0E0B2E0F0E0F9
:1007CE00EE0FFF1FAE0FBF1F0E943005D0010E941B
:1007DE0044050F5FE6CF0991199108951A9310E021
:1007EE001830D0F4E12FA0E0B2E0F0E0EE0FFF1FE2
:1007FE00EA0FFB1F0F01E12FACE4B2E0F0E0EE0FC9
:10080E00FF1FAE0FBF1F0E943005EE0FFF1FD0015E
:10081E00ED93FC931F5FE4CFF59B0CC0F598E9E0D8
:10082E003E2EE7E0E0938500E0EDE0938400E5E006
:10083E00E0936F0019910895E0E8E0936100E0E025
:10084E00E0936100EFE3E4B9E0E0E5B9E3E0E7B996
:10085E00E0E0E8B9E8E6EAB9EDE0EBB9E0E0E4BDE6
:10086E00E5BDE0EDE6BDE0E0E7BDE8BDECE9E09317
:10087E008700E0E4E0938600E0E0E093B600E2E07B
:10088E00E093B000E4E0E093B100E0E0E093B2006A
:10089E00ECE7E093B300E0E0E093B400E09369008E
:1008AE00EDBBE1E0ECBBE0E0E0936800E1E0E0935B
:1008BE006E00E5E0E0936F00E2E0E0937000E0E0B0
:1008CE00E093C100E0E8E0BFE0E0E0937B00ECBD28
:1008DE00F39AA0E0B0E00E943805EF3001F1A0E0FD
:1008EE00B0E0EFE00E944C05A1E0B0E0E6E50E942A
:1008FE004C05A2E0B0E0E0E00E944C0510E018309C
:10090E0070F4E12FA3E0B0E0F0E0EE0FFF1FAE0FAA
:10091E00BF1FE8EBFBE00E9444051F5FF0CFE0E055
:10092E00F0E0A9E4B2E083E00E945D0500E010E093
:10093E001830C0F4E12FA0E0B2E0F0E0EE0FFF1FA0
:10094E00EA0FFB1F0F01E12FA3E0B0E0F0E0EE0F86
:10095E00FF1FAE0FBF1F0E943405D001ED93FC9315
:10096E001F5FE6CFBEDE5B9AA8ECB0E00E94F004FB
:10097E005F98419AA9DE7894F498EEDCF39906C05C
:10098E00E2E0E0938000EAE1E0938100F19B02C097
:10099E00F39B01C00CC0E62DE03011F45F9801C04E
:1009AE005F9AE62DE03011F0419801C0419AF09B1C
:1009BE000AC0F0980F5F053028F000E0E62D0E9487
:1009CE0024056E2EC2DEF29B02C0F29807DFD6CF50
:1009DE00FFCF109639F080EA9FE00197F1F7A895C6
:1009EE001197C9F70895EA23FB2368237923089505
:1009FE00EE230E2EEA2F19F0EE0F0A94E9F7089562
:100A0E00EE230E2EFD01BC0131F0EE0FFF1F661F0F
:100A1E00771F0A94D1F70895F595E795F595E79523
:100A2E00F595E79508956F2F660F660B762F08954F
:100A3E008B2F880F880B982F0895EE23E1E009F095
:100A4E00EE270895EF2BE62BE72BE1E009F0E0E02F
:100A5E000895ED91FC9111970895119602D0FE2FF5
:100A6E001197F999FECFFF93FFB7F894A1BDB2BDD0
:100A7E00F89AE0B5FFBFFF91089507D01196EF9356
:100A8E00EF2F03D0EF9111970895F99B02C0A8950F
:100A9E00FCCF9FB7F894A1BDB2BDF89A80B5E81708
:100AAE0019F0E0BDFA9AF99A9FBF08959927EF932E
:100ABE00FF93A895F999FDCF7FB7F894E1BDF2BDEC
:100ACE00F89A60B57FBF31966D93019791F7FF91BC
:100ADE00EF9108955A934A933A932A931A930A934D
:100AEE0008955D814C813B812A8119810881089589
:00000001FF
