:0600000046C07AC0FDCFEE
:10000600FCCFFBCFFACFF9CF85C0F7CFF6CFF5CF30
:10001600F4CFBEC0BFC0F1CFF0CFCFC1EECFEDCF92
:10002600ECCFEBCFEACFE9CFE8CFE7CFE6CF10278B
:10003600E80364000A00010000100001100001003E
:1000460000009FC02B002B00250025002500250061
:100056002500250020400102040810200100EE00C2
:1000660000005555555555970100030046000200FE
:10007600900148000F0092014A000800A2015A00B0
:100086000100E10162000000F894EE27EFBBE5BF36
:10009600F8E1A895A4B7A77FA4BFF0936000E0930A
:1000A60060008DE0A2E0BB27ED938A95E9F780E03A
:1000B60092E0A0E0B1E0ED930197E9F7EEE6F0E01B
:1000C60085919591009761F0A591B5910590159050
:1000D600BF01F00105900D920197E1F7FB01F0CF0A
:1000E600E0E0EEBBEFEFEDBFE2E0EEBFC0E8D1E04F
:1000F6004FC3EA93EFB7EA93E0E0EDBBE2E0E5BD7C
:10010600E3EDE6BD9924F199F59AF198E991EFBFEF
:10011600E99118950A921A92AA93BA93EA93FA93D6
:10012600EFB7EA931A937394E8E27E1610F07724F9
:10013600F09AE8ECE915F0F4F1991BC0F19A10E099
:100146001830B8F4E12FA0E8B1E0F0E0EE0FFF1FA1
:10015600EA0FFB1F0F01E12FA3E0B0E0F0E0EE0F86
:10016600FF1FAE0FBF1F1CD4D001ED93FC931F5F82
:10017600E7CF04C0EFEF9E1608F493941991E99126
:10018600EFBFF991E991B991A99119900990189544
:10019600409818950A921A92AA93BA93EA93FA93F8
:1001A600EFB7EA933BD4E8E0E31530F4E0E0E09300
:1001B600DC01E093DD013324E8E0E315F0F0EBB178
:1001C600A0919001EA23EBB9E5B1AE2FE091910140
:1001D600EA23E5B9E32DA2E9B1E0F0E0EE0FFF1F57
:1001E600AE0FBF1FD9D30F01A081E32DF0E0EE556E
:1001F600FE4FE081EA2BD001EC93E8E0E31551F4E1
:10020600A091DC01B091DD01E0E4FCE9EA1BFB0B07
:100216008F010AC0E32DA0E8B1E0F0E0EE0FFF1F6A
:10022600AE0FBF1F0D911C91F801A091DC01B0919A
:10023600DD01EA0FFB1FE093DC01F093DD01E0E056
:10024600E0938000E0938100E0E4FCE9E01BF10B21
:10025600EF2FF0E0E0938500E0E4E01BE0938400FC
:10026600E0E4FCE9E01BF10BEC50FE4FEF2FF0E071
:10027600E0938B00E0E4E01BEC50E0938A00409AA8
:100286003394E2E0E0938000EAE1E0938100099193
:100296001991E991EFBFF991E991B991A991199055
:1002A60009901895B7D309E529E030E033236AF1C0
:1002B60010E0015040E050E04830E0E05E07ECF42A
:1002C600110FE02FF0E04BD3E655FE4F1080E02FE4
:1002D600F0E0E770F0704AD3A1E0B0E080E090E093
:1002E60032D3A12DBB278827992720D34ED348D3B5
:1002F6001E2B01504F5F5F4FDFCFD901AD5EBF4F61
:10030600E12F65D321503040D1CF5F9A4198FDCF80
:100316005298E1E0EDBB08957DD3E0EAE093DE017B
:1003260048E050E055230AF445C000E010E0E091B3
:10033600DE01E150E093DE0120E030E02031E0E034
:100346003E073CF5000F111FE091DE01F0E0DF01F2
:1003560006D3E655FE4FE081F0E0FF93EF93FD01F3
:10036600E770F07003D3A1E0B0E080E090E0EBD25C
:10037600AF91BF9100D3DAD208D302D3F0E00E2BAF
:100386001F2BE091DE01E150E093DE012F5F3F4F2E
:10039600D5CFE091DE01E150E093DE01FA01ACEC4D
:1003A600B1E0EE0FFF1FEA0FFB1F008311834150E0
:1003B6005040B8CF552444243EC10A921A92FA926C
:1003C6006A937A938A939A93AA93BA93EA93FA933F
:1003D600EFB7EA93E3EDE6BDF49B37C0E2E0E5BD97
:1003E6004A9B0DC0E22DF0E0BAD2E655FE4FBF01A2
:1003F6001080E22DE770A1E09ED2E1290DC0E22D2A
:10040600F0E0ADD2E655FE4FBF011080E22DE77059
:10041600A1E091D2E095E121DB01EC932394E091F8
:10042600DF01EF5FE093DF01EAE5E21519F4E0E0B2
:10043600E5BD38DFA091DF01A93031F4E0E0E5BD8C
:10044600E093DF01E1E0EDBB41C05F9A4198F2988D
:10045600E2E0E5BD4A9B0DC0E42DF0E080D2E65512
:10046600FE4FBF011080E42DE770A1E064D2E129C0
:100476000DC0E42DF0E073D2E655FE4FBF011080AB
:10048600E42DE770A1E057D2E095E121DB01EC9382
:100496004394E091E001EF5FE093E001A091E00179
:1004A600A231A1F4E0E0E5BDE093E0015394E8E079
:1004B600E51550F4E0E0E5BD2FDFF29AF398F59BE1
:1004C60003C0E0E0E0936F00E1E0EDBBE991EFBF30
:1004D600F991E991B991A991999189917991699146
:1004E600F99019900990189595D210E0A4EFB1E013
:1004F60013D220E030E02A30E0E03E077CF588E5C4
:1005060092E00197F1F740E050E04A30E0E05E0704
:1005160014F5E12FF0E023D2E655FE4F1080E12FCF
:10052600F0E0E770F07022D2A1E0B0E080E090E069
:100536000AD2A12DBB2788279927F8D126D2E030E9
:1005460011F05A9801C05A9A1F5F8BE58A95F1F708
:100556004F5F5F4FDACF2F5F3F4FCDCF6CC05AD280
:10056600222400E010E00A30E0E01E0774F4F801EF
:10057600E154FE4F0F01A3E1B0E0A00FB11F14D26A
:10058600D001EC930F5F1F4FEECF00E010E00A3072
:10059600E0E01E070CF04FC0E22DF0E0E0D1E6559A
:1005A600FE4FBF011080E22DE770A1E0C4D1E095B7
:1005B600E121DB01EC932394AFEBB1E0A00FB11F77
:1005C6005C9128E030E0022E032A19F150FF0DC09D
:1005D600E22DF0E0C4D1E655FE4FBF011080E22DBA
:1005E600E770A1E0A8D1E1290DC0E22DF0E0B7D176
:1005F600E655FE4FBF011080E22DE770A1E09BD1CA
:10060600E095E121DB01EC9323945695215030408F
:10061600DACFE22DF0E0A3D1E655FE4FBF01108000
:10062600E22DE770A1E087D1E129DB01EC93239469
:100636000F5F1F4FACCFF5D126960895529AAAE0C8
:10064600B0E06AD18CDF50DFA1E0B0E065D152980E
:10065600089548992CC0F49AE0E0E0938100E09375
:10066600B100E0936F00E0937000529A5A985B983D
:10067600A4EFB1E051D15B9A5A98A8ECB0E04CD106
:100686005A9A52984A9AA4EFB1E046D1E0E0E4BD06
:10069600E5BDE1E0EDBB78945F9A4198A4EFB1E047
:1006A6003BD15F98419AA4EFB1E036D1F5CF0895DA
:1006B600B5D1E0E04899E1E01E2FA091E1011A17BB
:1006C60021F4E0E0E093E20133C0A091E201AF5FE4
:1006D600A093E201A53060F11093E101103041F5DD
:1006E600F19903C0E8E29E1608F022C0E2E0F0E0CD
:1006F6000F01A2E0B0E058D143D1D00168D100E0AB
:100706000830B0F4E02FA3E0B0E0F0E0EE0FFF1FFA
:10071600EA0FFB1F0F01E02FA0E8B1E0F0E0EE0FBB
:10072600FF1FAE0FBF1F38D1D00149D10F5FE8CFF1
:100736000991199108951A9310E01830C8F4E12F21
:10074600A0E8B1E0F0E0EE0FFF1FEA0FFB1F0F017C
:10075600E12FACECB1E0F0E0EE0FFF1FAE0FBF1FD4
:100766001BD1EE0FFF1FD001ED93FC931F5FE5CF6A
:10077600F59B0CC0F598E9E03E2EE7E0E093850096
:10078600E0EDE0938400E5E0E0936F0019910895B1
:10079600E0E8E0936100E0E0E0936100EFE3E4B9B4
:1007A600E0E0E5B9E3E0E7B9E0E0E8B9E8E6EAB9B0
:1007B600EDE0EBB9E0E0E4BDE5BDE0EDE6BDE0E08F
:1007C600E7BDE8BDECE9E0938700E0E4E09386004E
:1007D600E0E0E093B600E2E0E093B000E4E0E0930E
:1007E600B100E0E0E093B200ECE7E093B300E0E0B4
:1007F600E093B400E0936900EDBBE1E0ECBBE0E020
:10080600E0936800E1E0E0936E00E5E0E0936F00BE
:10081600E2E0E0937000E0E0E093C100E0E8E0BFD2
:10082600E0E0E0937B00ECBDF39AA0E0B0E0BCD042
:10083600EF30E1F0A0E0B0E0EFE0C9D0A1E0B0E039
:10084600E6E5C5D0A2E0B0E0E0E0C1D010E01830A7
:1008560068F4E12FA3E0B0E0F0E0EE0FFF1FAE0F6B
:10086600BF1FE8EBFBE0ABD01F5FF1CFE0E0F0E0AD
:10087600A9ECB1E083E0BBD000E010E01830B8F49A
:10088600E12FA0E8B1E0F0E0EE0FFF1FEA0FFB1F3B
:100896000F01E12FA3E0B0E0F0E0EE0FFF1FAE0F77
:1008A600BF1F7ED0D001ED93FC931F5FE7CFD1DE53
:1008B6005B9AA8ECB0E030D05F98419ABFDE78949E
:1008C600F49826DDF39906C0E2E0E0938000EAE1C1
:1008D600E0938100F19B02C0F39B01C00CC0E62DA2
:1008E600E03011F45F9801C05F9AE62DE03011F018
:1008F600419801C0419AF09B09C0F0980F5F0530FE
:1009060020F000E0E62D3CD06E2ED2DEF29B02C037
:10091600F29811DFD7CFFFCF109639F080EA9FE02B
:100926000197F1F7A8951197C9F70895EA23FB23D4
:10093600682379230895EE230E2EEA2F19F0EE0F81
:100946000A94E9F70895EE230E2EFD01BC0131F05D
:10095600EE0FFF1F661F771F0A94D1F70895F595CE
:10096600E795F595E795F595E79508956F2F660F49
:10097600660B762F08958B2F880F880B982F089576
:10098600EE23E1E009F0EE270895EF2BE62BE72BA7
:10099600E1E009F0E0E00895ED91FC9111970895EA
:1009A600119602D0FE2F1197F999FECFFF93FFB74C
:1009B600F894A1BDF89AE0B5FFBFFF91089507D05E
:1009C6001196EF93EF2F03D0EF9111970895F99BAE
:1009D60002C0A895FCCF9FB7F894A1BDF89A80B540
:1009E600E81719F0E0BDFA9AF99A9FBF089599277A
:1009F600EF93FF93A895F999FDCF7FB7F894E1BDE2
:100A0600F89A60B57FBF31966D93019799F7FF917C
:100A1600EF9108955A934A933A932A931A930A9315
:100A260008955D814C813B812A8119810881089551
:00000001FF
